:020000040800F2
:10000000F80400200101000847190008AD15000898
:10001000451900083F020008991D00080000000073
:10002000000000000000000000000000DD1A0008D1
:10003000410200080000000049190008DF1A00080A
:100040001B0100081B0100081B0100081B01000820
:100050001B0100081B0100081B0100081B01000810
:100060001B0100081B0100081B0100081B01000800
:100070001B0100081B0100081B0100081B010008F0
:100080001B0100081B0100081B0100081B010008E0
:100090001B0100081B0100081B0100081B010008D0
:1000A0001B0100081B0100081B0100081B010008C0
:1000B0001B0100081B0100081B0100081B010008B0
:1000C0001B0100081B0100081B0100081B010008A0
:1000D0001B0100088D1D00081B0100081B01000802
:1000E0001B0100081B0100081B010008DFF80CD0F1
:1000F00000F084F80048004779220008F804002046
:100100000648804706480047FEE7FEE7FEE7FEE7B1
:10011000FEE7FEE7FEE7FEE7FEE7FEE7411B00081D
:10012000ED000008202A04DB203A21FA02F0002129
:10013000704721FA02F3D040C2F1200291400843F7
:1001400019467047D2B201E000F8012B491EFBD2DC
:1001500070470022F6E710B513460A4604461946D2
:10016000FFF7F0FF204610BD30B505462A460B4686
:1001700012F8010B13F8014B08B1A042F8D01CB1E2
:10018000002802D06D1CF1E7284630BD421C10F853
:10019000011B0029FBD1801A70472DE9F05F05464D
:1001A000002092469B4688460646814640241BE036
:1001B0002846414647462246FFF7B4FF53465A4673
:1001C000C01A914110D311461846224600F028F873
:1001D0002D1A67EB01084F4622460120002100F04E
:1001E0001FF817EB00094E41201EA4F10104DFDCCB
:1001F000484631462A464346BDE8F09F064C074D27
:1002000006E0E06840F0010394E8070098471034E6
:10021000AC42F6D3FFF76EFF5024000870240008AC
:10022000202A04DB203A00FA02F1002070479140B6
:10023000C2F1200320FA03F3194390407047FEE710
:100240007047000070B54FF47A74224619A11AA0C5
:1002500000F070F840F6B8352A4618A119A000F051
:1002600069F8204600F054F9224612A117A000F0C8
:1002700061F844F6206218A11AA000F05BF8284645
:1002800000F046F92A460BA11EA000F053F82046C4
:1002900000F03EF9224607A11EA000F04BF86200D4
:1002A00004A11FA000F046F82046BDE8704000F011
:1002B0002FB900004F4B000041540000726561648B
:1002C0007900000041542B525354000041542B43F9
:1002D000574D4F44453D31005749464920474F54FB
:1002E0002049500041542B43574A41503D22695008
:1002F000686F6E65222C223132333435363737221F
:100300000000000041542B4349505345525645527A
:100310003D30000041542B4349504D55583D31006C
:1003200041542B4349505345525645523D312C3888
:10033000303830002DE9F043C3B0894605464FF40C
:100340008077164639466846FFF703FF00242946A2
:1003500026A001F023FD294800680168406841900B
:100360002846FFF713FF82B264232946234801F091
:10037000C3F86423022222A1204801F0BDF800F056
:10038000CFF90546E84624E00A23012240A91B488C
:1003900001F02CF8E8B99DF8001108F80410641C6D
:1003A000A4B2FF2C04D3002439466846FFF7D1FEDF
:1003B0000A23012240A9134801F09EF849466846E5
:1003C000FFF7D2FE28B110A001F0E8FC43B0BDE871
:1003D000F08300F0A5F9401BB042D5D30DA001F089
:1003E000DDFC69460EA001F0D9FCEFE70D0A53458C
:1003F0004E443A2025730D0A00000000B000002092
:100400000D0A00006C0000200D0A5355434345536C
:10041000530D0A000D0A4641494C45440D0A00009F
:10042000524543563A25730D0A00000072B6FEE7A6
:1004300010B590F821100022022905D00421816313
:1004400080F82020012010BD01680B6823F00E0306
:100450000B6001680B6823F001030B6090F84030DB
:10046000C46B012101FA03F3636080F8211080F866
:100470002020104610BD000010B590F82110002477
:10048000022903D00421816301243DE001680A6848
:1004900022F00E020A6001680A6822F001020A6076
:1004A0001A4A0168914201D1012121E0174A143210
:1004B000914201D110211BE0144A2832914201D10E
:1004C000891515E0114A3C32914201D189140FE09F
:1004D0000E4A5032914202D14FF4803108E00B4A6B
:1004E0006432914202D14FF4801101E04FF08071EB
:1004F000064A083A5160012180F82110002180F855
:100500002010416B01B18847204610BD0800024011
:1005100070B5044600F004F90546601C02D004489A
:100520000078044400F0FCF8401BA042FAD370BDF0
:10053000040000202DE9F84FDFF8B891002409F1FC
:10054000040A0AF1040B23460F270BF1040EC9E03D
:100550000125A5402A40AA427DD1674ED1F804C0AA
:10056000ACEB0608B44532D014DCBCF1030F3AD032
:1005700009DCBCF1000F2AD0BCF1010F1CD0BCF18A
:10058000020F31D11DE0BCF1110F17D0BCF1120FD9
:100590002AD119E0B8F5881F19D006DCB8F5803FDC
:1005A00015D0B8F5801F1FD111E0B8F5001F0ED08F
:1005B000B8F5041F18D10AE0CB6815E0CB681B1D05
:1005C00012E0CB6808330FE0CB680C330CE08B688B
:1005D0002BB1012B4FF0080303D0456104E0042345
:1005E00002E0056100E00023FF2A01D8064601E091
:1005F00000F104064FEA840501D9A5F12005D6F8DB
:10060000008007FA05FC28EA0C0803FA05F548EA19
:100610000508C6F800804D68ED0062D5374DAE691B
:1006200046F00106AE61AD6924F0030605F0010550
:100630000095334D06EB050CDCF80850A607360F85
:1006400007FA06F825EA0805DFF8B880404503D127
:100650004FF0000817E044E0DFF8AC80404502D1DD
:100660004FF001080FE0DFF8A480404502D14FF0C1
:10067000020808E0DFF89880404502D14FF00308F7
:1006800001E04FF0040808FA06F848EA0508CCF83B
:1006900008804D68D9F80060ED034D4601D516433A
:1006A00000E096432E604D68DAF80060AD035546D1
:1006B00001D5164300E096432E604D68DBF80060DC
:1006C000ED025D4601D5164300E096432E604D686D
:1006D000DEF80060AD02754601D5164300E0964392
:1006E0002E60641C0D682A46E5407FF431AFBDE8FA
:1006F000F88F0000000401400000111000100240BB
:100700000000014000080140000C014000100140C1
:10071000001401400AB1016170470904FBE70000C1
:1007200001488068704700000400002070B5040094
:1007300025D094F83D00002520B984F83C5020468F
:1007400000F050F9242084F83D002068016821F071
:10075000010101602068016841F4004101602068E6
:10076000016821F40041016000F098FA4D4A616887
:10077000914201D84C4900E04C49884201D2012005
:1007800070BD4B492368B0FBF1F15E6826F03F066F
:100790000E435E606368934206D94FF496735943E3
:1007A0004FF47A73B1FBF3F12368491C1E6A26F0FB
:1007B0003F06314319626168914210D84900401EDA
:1007C000B0FBF1F2521CC2F30B02042A01D2042046
:1007D00022E0B0FBF1F0401CC0F30B001CE0A2686B
:1007E000F2B301EBC10303EB0116431EB3FBF6F3B7
:1007F0005B1C43F480431B0549D092B301EBC1025B
:1008000002EB0111401EB0FBF1F0401CC0F30B00E5
:1008100040F4804040F400402168CA694CF6FF7300
:100820009A431043C861D4E9071001432068026865
:1008300022F0C00211430160D4E9030101432068A2
:10084000826848F2FF339A4311438160D4E905017D
:1008500008432168CA6822F0FF021043C86001E023
:100860000EE016E02068016841F001010160256496
:10087000202084F83D00256384F83E50002070BDA0
:1008800001EB4106431EB3FBF6F35B1CB3E701200B
:10089000C2E701EB4101401EB0FBF1F0401CC0F388
:1008A0000B00B7E7A086010080841E0000093D0010
:1008B00040420F002DE9FF4F83B09A46DDE91197C2
:1008C00093460446DDF84080FFF72AFF054694F87A
:1008D0003D0020287FD11923012240492046009560
:1008E00000F0F6FE002876D194F83C00012872D082
:1008F000012084F83C0020680168C90703D1016821
:1009000041F0010101602068016821F4006101608B
:10091000212084F83D00402084F83E000026266413
:10092000C4F82480A4F82A90608D20852C48E062C9
:10093000CDE9007553465A462046049900F04EFE14
:1009400070B930E02A463946204600F040FF58B1E1
:10095000206C042804D12068016841F40071016012
:10096000012007B0BDE8F08F606A21680078086157
:10097000606A401C6062218D491E89B22185628DAA
:10098000521E628522685369DB435B070BD469B151
:1009900000781061606A401C6062208D401E2085D6
:1009A000608D401E6085208D0028CBD12A463946B7
:1009B000204600F067FE0028CAD154F83D0B0168BC
:1009C00041F400710160202004F81E09E677667783
:1009D0000020C6E7FFE70220C3E700000200100086
:1009E0000000FFFF10B586B0002100910191029137
:1009F000039100680F4988421AD10F4CA06940F05A
:100A00000800A061A069694600F008000490C020B9
:100A1000009012200190032003900848FFF78AFD00
:100A2000E06940F40010E061E06900F40010049017
:100A300006B010BD0054004000100240000C014000
:100A400002488168027811448160704704000020E8
:100A5000074810B5016841F010010160032000F063
:100A600075F8002000F006F800F024F8002010BD12
:100A70000020024070B50D4D04464FF47A7128787D
:100A8000B1FBF0F00A490968B1FBF0F000F0ECFAB4
:100A900048B9102C07D200222146501E00F036F82B
:100AA00000206C6070BD012070BD000004000020BB
:100AB000100000200C4808B5816941F001018161F6
:100AC000816901F001010091C16941F08051C1616A
:100AD000C06900F0805000900448416821F0E06156
:100AE00041F00071416008BD00100240000001406B
:100AF000002809DB00F01F0201219140400980001D
:100B000000F1E020C0F8001170470000F0B40E4B77
:100B10001B680C46C3F30223C3F10705042D00D95B
:100B20000425191D072901D2002300E0DB1E012640
:100B300006FA05F1491E214099409E40761E164056
:100B40003143F0BC01F03AB90CED00E0064900F089
:100B5000070208684FF6FF03184040EA0220034AE4
:100B600010430860704700000CED00E00000FA053B
:100B70002DE9F0470F46050061D0434E306800F084
:100B80000700B84209D2306820F0070038433060CF
:100B9000306800F00700B84251D128683B4C81070B
:100BA00012D5400703D5606840F4E06060602878A3
:100BB000000703D5606840F4605060606068A96811
:100BC00020F0F000084360602878C00728D06868EB
:100BD000012810D02168022810D0890700292EDAB8
:100BE000616821F0030101436160FFF799FD8046D0
:100BF00041F288390DE021688903EFE78901EDE7CB
:100C0000FFF78EFDA0EB0801494502D90320BDE89E
:100C1000F0876068696800F00C00B0EB810FEFD1DD
:100C2000306800F00700B8420BD9306820F00700A8
:100C300038433060306800F00700B84201D001202E
:100C4000E5E72878400705D56068E96820F4E060AA
:100C5000084360602878000706D56068296920F499
:100C6000605040EAC100606000F038F86168084AEE
:100C7000C1F30311515CC84006490860064800688A
:100C8000FFF7F8FE0020C2E70020024000100240FB
:100C900038240008100000200800002004480549FE
:100CA00000684968044AC1F30221515CC84070479A
:100CB00010000020001002404824000804480549A4
:100CC00000684968044AC1F3C221515CC8407047BA
:100CD00010000020001002404824000812A185B036
:100CE0000FC98DE80F0014A0144A006804905168E1
:100CF000134801F00C03042B10D0082B0ED1C1F3C4
:100D00008343C9031DF803000AD5516804AAC1F33F
:100D10004041515C0A4A5043B0FBF1F005B07047C6
:100D200008494843FAE700000203040506070809DA
:100D30000A0B0C0D0E0F10100102000000100240F3
:100D400000127A0000093D002DE9F84F040070D030
:100D50002078C04DC00749D06868C0F381000128E1
:100D600007D06868C0F38100022809D16868C00311
:100D700006D52868800339D560680028E7D035E0BB
:100D80006068B0F5803F0BD010B1B0F5A02F11D046
:100D9000286820F480302860286820F4802002E051
:100DA000286840F480302860606890B1FFF7B8FC94
:100DB00006460AE0286840F480202860F0E700BF7B
:100DC000FFF7AEFC801B642873D828688003F7D532
:100DD0000CE0FFF7A5FC064605E000BFFFF7A0FC0E
:100DE000801B6428F0D828688003F7D420789A4EB6
:100DF00080074FF001094FF0000839D5686810F0FE
:100E00000C0F07D06868C0F38100022809D1686818
:100E1000C00306D42868800714D52069012808D1AA
:100E200010E02069B0B1C6F80090FFF779FC0746E2
:100E300005E00AE1FFF774FCC01B0228C4D828684B
:100E40008007F7D52868616920F0F80040EAC10002
:100E500028600DE0C6F80080FFF762FC074604E05A
:100E6000FFF75EFCC01B022823D828688007F7D450
:100E7000207800072CD57948A169D9B1C0F8009035
:100E8000FFF74EFC074604E0FFF74AFCC01B0228B0
:100E90000FD8686A8007F7D571484FF4FA51006897
:100EA000B0FBF1F0009000BF0098411E0091FAD213
:100EB0000EE080E0C0F80080FFF732FC074604E057
:100EC000FFF72EFCC01B022875D8686A8007F7D48C
:100ED0002078400760D5E8690027C00008D4E86999
:100EE00040F08050E861E869012700F080500090F0
:100EF0005C480168C90513D40168834641F48071D8
:100F00000160FFF70DFC824606E000BFFFF708FC1A
:100F1000A0EB0A0064284ED8DBF80000C005F5D528
:100F2000E06801280AD008B1052813D0286A20F00B
:100F300001002862286A20F0040002E0286A40F0DC
:100F400001002862E06841F2883B98B1FFF7E8FBB6
:100F500082460BE0286A40F004002862EEE700BFFA
:100F6000FFF7DEFBA0EB0A0159455AD8286A800733
:100F7000F6D50CE0FFF7D4FB824605E0FFF7D0FB87
:100F8000A0EB0A0159454CD8286A8007F6D41FB156
:100F9000E86920F08050E861E06988B36968C1F3CE
:100FA0008101022944D00228C6F8608004D0FFF7EE
:100FB000B7FB044638E034E0FFF7B2FB074604E035
:100FC000FFF7AEFBC01B02282BD828688001F7D49E
:100FD000206AB0F5803F05D16868A16820F4003030
:100FE00008436860D4E908010843696821F4741172
:100FF00008436860C6F86090FFF792FB044606E07D
:1010000025E000BFFFF78CFB001B022809D82868E9
:101010008001F7D51BE000BFFFF782FB001B022811
:1010200002D90320BDE8F88F28688001F4D40EE0CF
:101030000128F7D06868226A00F48031914204D117
:10104000616A00F47010884201D00120EAE70020B4
:10105000E8E70000001002400000424280044242E3
:10106000100000200070004010B5401EB0F1807FDD
:1010700001D3012010BD4FF0E02460610F21601703
:1010800000F09CFE0020A06107202061002010BD20
:1010900070477047F8B5026804461068D168536914
:1010A00010F00F0F4FF0000553D003F0010601F4CC
:1010B000907737435FD0C20705D0CA0503D5226CAD
:1010C00042F001022264420705D5DA0703D0226C00
:1010D00042F002022264820705D5DA0703D0226CAF
:1010E00042F004022264020707D501F020023243D5
:1010F00003D0226C42F008022264226C002A34D011
:10110000800604D5880602D5204600F03AFD206806
:101110004069216CC0F38010090700D430B3204629
:1011200000F017FD2068416949061BD5416921F08F
:1011300040014161A06BA8B158494163A06BFFF722
:101140009BF9002811D0A06B416B01B0BDE8F040C5
:10115000084783060FD58B060DD52046BDE8F8401D
:1011600000F00FBD2046FFF794FFF8BD2046FFF7C3
:1011700090FF2564F8BD266B2023012E52D1C606B0
:1011800050D5CE064ED51068506800905069400684
:101190002AD5A16B086840680004000CEAD0A68D2F
:1011A0008642E7D9E0858869202818D0D06820F4E5
:1011B0008070D0602068416921F0010141612068A0
:1011C000416921F04001416184F83E302563206887
:1011D000C16821F01001C160A06BFFF729F9A08D53
:1011E000E18D401A81B219E0A08DE18D401A81B2E3
:1011F000E08D0028BED00029BCD0D06820F49070CB
:10120000D0602068426922F00102426184F83E30D9
:1012100025632068C26822F01002C2602046FFF7F2
:1012200037FFF8BD05062BD50D0629D594F83D00EE
:101230002128F6D1A068B0F5805F01D12069B0B156
:10124000206A411C2162216800784860E08C401EC1
:101250000004000CE084E4D12068C16821F0800122
:10126000C1602068C16841F04001C160F8BD206ADA
:101270000088C0F308005060206A801C2062E5E707
:101280004006F3D54806F1D5D168204621F040014B
:10129000D16084F83D3000F088F9F8BD431B0008A8
:1012A00070B5040004D094F83D00002510B106E0AC
:1012B000012070BD84F83C50204600F023F8242023
:1012C00084F83D002068C16821F40051C1602046C7
:1012D00000F0B2FC2068016921F4904101612068AE
:1012E000416921F02A0141612068C16841F400513F
:1012F000C1602564202084F83D0084F83E00002071
:1013000070BD00002DE9F04385B00025064600952C
:1013100001950295039500683049314C314F4FF0EB
:1013200002084FF00309884228D1A06940F48040A8
:10133000A061A06900F480400490A06940F004001E
:10134000A061A069CDF80C9000F00400049048154D
:10135000CDE9000869463846FFF7ECF82015CDE9DD
:101360000005694638460295FFF7E4F80022114669
:101370002520FFF7CBFB2520FFF7BAFB1A49306881
:10138000884228D1E06940F40030E061E06900F46F
:1013900000300490A06940F00400A061A069694693
:1013A00000F0040004900420CDE90008CDF80C9072
:1013B0003846FFF7BFF80820CDE9000569463846F2
:1013C0000295FFF7B7F8002201212620FFF79EFBC8
:1013D0002620FFF78DFB05B0BDE8F0830038014003
:1013E0000010024000080140004400402DE9F84F81
:1013F000044690F83E009A4616460D46202853D1E2
:10140000FDB1F6B194F83C0001284DD0012084F8DC
:101410003C0000272764222084F83E002763FFF762
:101420007FF9A6858146E685A0684FF4805840453F
:1014300001D1206940B12E465FF0000584F83C7070
:1014400027E00120BDE8F88F0026F7E74B46002291
:1014500020212046CDF800A000F065FC08B1032053
:10146000F0E726B1A06840451BD038B108E02068FD
:101470004068C0F3080025F8020B07E0206980B13E
:101480002068406800F07F0006F8010BE08D401EE8
:10149000E085E08D0028D9D1202084F83E0000208E
:1014A000D0E720684068EFE70220CBE790F83E30B5
:1014B000202B0ED159B152B190F83C30012B08D0FD
:1014C000012380F83C300023036300F011BC0120AD
:1014D000704702207047000000680449884204D128
:1014E000012203490348FFF7E1BF7047003801407C
:1014F000000000206C0000202DE9F843044690F81D
:101500003D001F4616460D4620284CD1C5B1BEB140
:1015100094F83C00012846D0012084F83C004FF0AC
:101520000008C4F84080212084F83D00FFF7F8F857
:10153000A6848146E684A068B0F5805F03D004E00D
:101540000120BDE8F883206928B12E465FF0000530
:1015500084F83C800EE00026FAE78021204600F067
:10156000E2FBA0B9AEB116F8010B21684860E08C2F
:10157000401EE084E08C4B464FF0000200970028AC
:10158000EBD14FF04001204600F0CDFB30B10320FD
:10159000D7E735F8020BC0F30800E6E7202084F80F
:1015A0003D000020CDE70220CBE77047FEE7016851
:1015B0004A69D24352050FD46FF480624A61002118
:1015C00040F8301F202242738173026942F0040206
:1015D0000261017301207047002070472DE9F84334
:1015E000044600680D46DDE90897016898461646EE
:1015F00041F4807101604B4600224FF001112046FA
:10160000009700F065F848B120680068C00502D571
:101610004FF4007020640320BDE8F883216805F0D2
:10162000FE0008613B464A461549204600F084F812
:1016300088B920684169806900903A464946204649
:1016400000F0C5F848B1206C042804D12068016876
:1016500041F4007101600120DEE7F5B2B8F1010F3D
:1016600009D02168300A08613A464946204600F010
:10167000AEF80028E7D1206805610020CCE7000023
:101680000200010070B516460D4604460DE02046E6
:10169000FFF78DFF08B1012070BD681C05D0FFF772
:1016A0003FF8801BA84207D835B120684069C04385
:1016B0004007ECD4002070BD002044F8300F2021FA
:1016C0006173A073216941F0200121612073E2E779
:1016D0002DE9F0471E4690460D460446C1F30747E4
:1016E000DDF8209008E0701C06D0FFF719F8A0EB99
:1016F0000900B0420FD876B12068012F18D0806958
:1017000025EA00000004000C14D000214145EAD075
:101710000020BDE8F087002044F8300F20216173DD
:10172000A073216941F02001216120730120F0E7BD
:101730004069E5E70121E9E72DE9F0479A4691463E
:101740000E46044600254FF02008C1F3074725E068
:1017500020684069C043400514D42068016841F402
:101760000071016021686FF480604861256384F82E
:101770003D8084F83E50206C40F00400206484F8E2
:101780003C501FE0B9F1FF3F08D0FEF7C9FFA0EBC6
:101790000A0149450CD8B9F1000F09D02068012F82
:1017A00013D0806926EA00000004000C0BD0CFE7BC
:1017B00044F8305F84F80D80A573206940F0200064
:1017C000206125730120BDE8F0874069EAE770B524
:1017D00016460D4604460DE02046FFF7E8FE08B128
:1017E000012070BD681C05D0FEF79AFF801BA8423F
:1017F00007D835B120684069C0430006ECD400200A
:1018000070BD002044F8300F20216173A07321695E
:1018100041F0200121612073E2E7000030B585B07E
:10182000002002901948816941F02001816181699D
:1018300001F020010491816941F004018161816915
:1018400001F004010491816941F00801816181691D
:1018500001F008010491816941F010018161806902
:101860004FF4005400F0100004900120CDE9004036
:101870000220074D039069462846FEF75BFE0122D1
:1018800021462846FEF746FF05B030BD0010024055
:10189000001001400D4810B50B4901600C49416032
:1018A00000214FF480428160C0E9031241618161EF
:1018B000C1610162FEF73AFF002803D0BDE8104085
:1018C000FEF7B4BD10BD0000005400401800002019
:1018D000801A06000C4810B50A4901604FF4E13146
:1018E0004160002181600C22C160C0E90412816165
:1018F000C161FFF7D5FC002803D0BDE81040FEF71A
:1019000095BD10BD003801406C0000200C4810B59A
:101910000A4901604FF4E1314160002181600C22ED
:10192000C160C0E904128161C161FFF7B9FC002800
:1019300003D0BDE81040FEF779BD10BD0044004063
:10194000B0000020FEE7FEE7704770B5002404F108
:10195000B000C0B200F09EF8002000F09BF810200C
:1019600000F098F80025002000F0A6F86D1CEDB2FC
:10197000802DF8D3641CE4B2082CE8D370BD0000BD
:101980002DE9F04115460646134F20E07F2E00D981
:101990000026002428780001A0F500702044385C5F
:1019A00000F08AF8641CE4B2082CF3D300242878F1
:1019B0000001A0F5007020443844007A00F07CF863
:1019C000641CE4B2082CF2D30836F6B26D1C2878F9
:1019D0000028DBD1BDE8F0810824000810B56420A0
:1019E000FEF796FDAE2000F055F8202000F052F8EA
:1019F000102000F04FF8B02000F04CF8C82000F0A4
:101A000049F8002000F046F8102000F043F840208C
:101A100000F040F8812000F03DF8FF2000F03AF897
:101A2000A12000F037F8A62000F034F8A82000F03C
:101A300031F83F2000F02EF8A42000F02BF8D3203E
:101A400000F028F8002000F025F8D52000F022F85A
:101A5000F02000F01FF8D92000F01CF8222000F040
:101A600019F8DA2000F016F8122000F013F8DB2045
:101A700000F010F8202000F00DF88D2000F00AF89A
:101A8000142000F007F8AF2000F004F8BDE8104083
:101A9000FFF75BBF01B584B00121642204A88DE883
:101AA00007000B46002278210248FEF703FF05B02D
:101AB00000BD00001800002001B584B0012164229F
:101AC00004A88DE807000B46402278210248FEF763
:101AD000F1FE05B000BD0000180000207047FEF7C1
:101AE000AFBF30B58FB028216846FEF732FB142116
:101AF0000AA8FEF72EFB01210804CDE900100024FE
:101B0000029402250491CDE907504FF4E0100990AA
:101B10006846FFF719F908B172B6FEE70F20CDE964
:101B20000A054FF48060CDE90C4002210AA80E940A
:101B3000FFF71EF8002801D072B6FEE70FB030BDE7
:101B4000704710B5406A0021C185C184FFF7A1FA32
:101B500010BD0168CA6822F49072CA6001684A69BF
:101B600022F001024A61016B012904D10168CA68AF
:101B700022F01002CA60202180F83E10002101638B
:101B8000704708B590F83E10222901D0022008BD08
:101B900082684FF480539A4201D1016921B1816A70
:101BA0009A421BD04AB10AE00268816A5268C2F3C5
:101BB00008020A80816A891C08E0026972B1026821
:101BC000526802F07F020A70816A491C8162C18DED
:101BD000491E0904090CC18503D019E00268526846
:101BE000F1E70168CA6822F02002CA600168CA6889
:101BF00022F48072CA6001684A6922F001024A61D7
:101C0000202180F83E10016B012903D0FFF764FC0E
:101C1000002008BD002101630168CA6822F010029B
:101C2000CA6001680A68D20602D50A68496800914C
:101C3000818DFFF72DFAEBE770B504460068016966
:101C4000E26821F44051114301612169A068084311
:101C5000616908432168CA6841F20C639A430243F0
:101C6000CA6020684169A26921F440711143416151
:101C70001E492068884202D1FFF720F801E0FFF7F3
:101C80000DF800EBC00101EB0012606864218000D8
:101C9000B2FBF0F3B3FBF1F36FF018067343B2FB42
:101CA000F0F5B2FBF0F605EB8305322303EB0515E7
:101CB000B5FBF1F5B6FBF1F605F0F00505EB061501
:101CC000B2FBF0F6B2FBF0F0B0FBF1F06FF01802EF
:101CD000504306EB800003EB0010B0FBF1F02168ED
:101CE00000F00F002844886070BD000000380140FB
:101CF00081628285C28500210164222280F83E2013
:101D000080F83C100168CA6842F48072CA600168B9
:101D10004A6942F001024A610068C16841F020014D
:101D2000C160002070472DE9F041984617460E46E5
:101D30000446069D1DE0681C1BD02DB1FEF7F0FC8B
:101D4000A0EB0800A84214D92068C16821F4D07122
:101D5000C1602068416921F001014161202084F8BF
:101D60003D0084F83E00002084F83C000320BDE8DC
:101D7000F0812068006836EA000004D00020B842F4
:101D8000D9D00020F3E70120F9E700000148FFF770
:101D900081B900006C000020FEE700000FB4054B85
:101DA00010B503A9044A029800F028F810BC5DF8A9
:101DB00014FB000061220008140000200907090E2E
:101DC000002804DB00F1E02080F80014704700F0E8
:101DD0000F0000F1E02080F8141D704702E008C8F1
:101DE000121F08C1002AFAD170477047002001E095
:101DF00001C1121F002AFBD1704700002DE9FF4FDF
:101E00008DB00F460546002606E025280BD0DDE9FB
:101E10000F1290476D1C761C28780028F5D111B060
:101E20003046BDE8F08F0024A246A1460122EC49CD
:101E300000E0044315F8013F203B02FA03F008429A
:101E4000F7D128782A2810D06FF02F022878A0F137
:101E50003001092914D80AEB8A0102EB410144F050
:101E6000020400EB010A6D1CF0E701CF5FEA000AF3
:101E700003D544F40054CAF1000A44F002046D1C76
:101E800028782E2817D115F8010F44F004042A28C9
:101E90000ED06FF02F022878A0F1300109290AD85E
:101EA00009EB890102EB410100EB01096D1CF2E72E
:101EB00057F8049B6D1C28786C280FD006DC4C2842
:101EC00017D068280DD06A2814D104E0742810D0E7
:101ED0007A280FD10DE044F400140AE044F4801491
:101EE00001E044F440146978814202D104F5801481
:101EF0006D1C6D1C2A786E2A1FD00CDC632A31D031
:101F000004DC002A8BD0582A11D1A3E0642A68D0BF
:101F1000692A0CD165E0732A2ED004DC6F2A73D0B5
:101F2000702A04D19BE0752A6FD0782A6ED01046B3
:101F3000DDE90F129047761C50E1C4F302500228ED
:101F400006D0032809D0042801CF09D0066045E156
:101F500001CFF117C0E9006140E101CF06803DE10A
:101F600006703BE117F8040B8DF8000000208DF897
:101F70000100EB46012003E057F804BB4FF0FF30AF
:101F800061074FF0000102D40DE008F1010188461D
:101F900049450FDA8045F8DB1BF808100029F4D119
:101FA00008E008F1010188468142FADB1BF80810BD
:101FB0000029F6D1DDE90F23AAEB0800814621466E
:101FC00000F036F9304400EB080604E0DDE90F12BA
:101FD0001BF8010B9047B8F10108F7D2214648469B
:101FE000F7E00A21C4F302534FF0000B0891022BD3
:101FF00004D001CFC117032B09D00AE0FF1D27F041
:102000000707F7E8020108E032E01FE020E000B235
:10201000C117042B01D140B2C117031E71F1000397
:1020200007DA4FF0000CD0EB0C006CEB01012D2314
:1020300002E0230504D52B238DF82430012303E08F
:10204000E30701D02023F7E7984658E00A2110E083
:1020500010210EE010204FF0000B08900CE0102132
:102060004FF0000B44F004044FF00809089103E01E
:1020700008214FF0000B0891C4F30253022B04D047
:1020800001CF0021032B06D006E0FF1D27F0070734
:10209000F7E8020103E080B2042B00D1C0B24FF098
:1020A000000823072BD5702A07D0DDF820C08CF05C
:1020B000100C5CEA0B0C05D00EE040238DF82430A8
:1020C000012308E050EA010306D030238DF82430C4
:1020D0008DF8252002239846DDF820C08CF0080CEE
:1020E0005CEA0B0C0BD150EA010301D1630706D562
:1020F00030238DF824304FF00108A9F10109582A46
:1021000004D038A20B9208AA0A920BE03AA2F9E78F
:102110005B46089AFEF741F80B9B9B5C0A9A521E9D
:102120000A92137050EA0102F2D10A98ADEB000056
:1021300000F1200B600702D524F4803401E04FF059
:102140000109D94502DDA9EB0B0000E0002000EBFE
:102150000B0141440890AAEB010AE00306D4DDE933
:102160000F232146504600F063F806444FF0000963
:1021700008E009A911F80900DDE90F12904709F1FB
:102180000109761CC145F4DBE0030CD5DDE90F2322
:102190002146504600F04CF8064404E0DDE90F12F9
:1021A00030209047761C0899481E08900029F5DCDD
:1021B00008E00A980A990078491C0A91DDE90F1293
:1021C0009047761CBBF10001ABF1010BF1DC21461D
:1021D0005046DDE90F2300F019F806446D1C1BE69C
:1021E00009280100303132333435363738396162ED
:1021F00063646566000000003031323334353637B1
:102200003839414243444546000000002DE9F04181
:10221000044600251E461746880404D405E03946C6
:102220002020B0476D1C641EF9D52846BDE8F0811A
:102230002DE9F041044600251E469046C80301D50D
:10224000302700E02027880404D505E041463846C1
:10225000B0476D1C641EF9D52846BDE8F08100002A
:1022600013B56423012269460248FFF745F9009837
:102270001CBD00006C00002008B5FEF7E9FBFFF76D
:1022800030FCFFF7CBFAFFF725FBFFF73FFBFFF72B
:1022900001FB4FF47A70FEF73BF935A0FFF77EFDA6
:1022A000FFF79CFBFFF751FB002136A20846FFF722
:1022B00067FB012237493848FFF7F8F8FDF7C2FFFE
:1022C000FFF743FB002135A20846FFF759FB37A271
:1022D00002210020FFF754FB2E4C384F00254FF40D
:1022E00000566423012269463548FFF77FF820B97C
:1022F0009DF8001033A0FFF751FD207831280AD057
:102300006F2808D04F2806D0302817D0662815D05F
:10231000462813D027E0002231463846FEF7FAF966
:10232000FFF713FB00211DA20846FFF729FB27A298
:1023300004210020FFF724FB28A011E001223146F0
:102340003846FEF7E7F9FFF700FB002113A2084625
:10235000FFF716FB24A204210020FFF711FB27A0A2
:10236000FFF71CFD25700A20FEF7D2F8B9E7000040
:102370005553415254322054657374204F4B0D0A0B
:10238000000000004553503832363620496E6974DB
:102390002E2E2E00000000206C0000205769466998
:1023A00020436F6E6E656374656400005443502073
:1023B000506F72743A38303830000000001001401D
:1023C000B000002030782530325820004C45443A87
:1023D000204F4E20284C6F63616C2900204C4544EF
:1023E000204F4E0D0A0000004C45443A204F46460F
:1023F00020284C6F63616C2900000000204C45448C
:10240000204F46460D0A00000000000000000000BA
:10241000000000000000000000007C1211127C008F
:1024200000003F4040403F0000001010101010001E
:1024300000007F404040400000000000000000001D
:10244000010203040607080900000000010203045A
:10245000702400080000002018000000DC1D0008A7
:102460008824000818000020E0040000EC1D00088B
:10247000000000000100000010000000000000004B
:082480000024F400000000003C
:04000005080000ED02
:00000001FF
